S01F00004C4D33352054656D70657261747572652053656E736F722E73726563BC
S11300000C942A000C943F000C943F000C943F0085
S11300100C943F000C943F000C943F000C943F0060
S11300200C943F000C943F000C943F000C943F0050
S11300300C943F000C943F000C943F000C943F0040
S11300400C943F000C943F000C943F000C943F0030
S11300500C943F0011241FBECFE5D8E0DEBFCDBF16
S113006010E0A0E6B0E0E0E8F9E002C005900D92EF
S1130070A237B107D9F70E9451020C94BE040C9424
S1130080000087B1806487B987B1806887B987B178
S1130090806187B986B1806886B986B1846086B983
S11300A086B1826086B9089586B1806486B936992E
S11300B0FECF86B1806186B924B185B190E0982FD6
S11300C08827822B0895823419F118F4813439F089
S11300D008958334B1F1843409F44CC00895413057
S11300E059F42AB381E090E002C0880F991F6A9501
S11300F0E2F7822B8ABB08952AB381E090E002C024
S1130100880F991F6A95E2F7809582238ABB089528
S1130110413059F427B381E090E002C0880F991F61
S11301206A95E2F7822B87BB089527B381E090E0BC
S113013002C0880F991F6A95E2F78095822387BBD6
S11301400895413059F424B381E090E002C0880F4F
S1130150991F6A95E2F7822B84BB089524B381E04A
S113016090E002C0880F991F6A95E2F78095822378
S113017084BB0895413059F421B381E090E002C07A
S1130180880F991F6A95E2F7822B81BB089521B3EA
S113019081E090E002C0880F991F6A95E2F780958C
S11301A0822381BB0895823419F118F4813439F023
S11301B008958334B1F1843409F44CC00895413076
S11301C059F42BB381E090E002C0880F991F6A951F
S11301D0E2F7822B8BBB08952BB381E090E002C041
S11301E0880F991F6A95E2F7809582238BBB089547
S11301F0413059F428B381E090E002C0880F991F80
S11302006A95E2F7822B88BB089528B381E090E0D9
S113021002C0880F991F6A95E2F78095822388BBF4
S11302200895413059F425B381E090E002C0880F6D
S1130230991F6A95E2F7822B85BB089525B381E067
S113024090E002C0880F991F6A95E2F78095822397
S113025085BB0895413059F422B381E090E002C097
S1130260880F991F6A95E2F7822B82BB089522B307
S113027081E090E002C0880F991F6A95E2F78095AB
S1130280822382BB08956295607F823479F018F4EA
S1130290813431F00895833479F0843499F00895E9
S11302A08BB38F708BBB8BB3862B8BBB88B38F7058
S11302B088BB88B3862B88BB85B38F7085BB85B319
S11302C0862B85BB82B38F7082BB82B3682B62BBE3
S11302D0089541E062E083E40E94D3008FE99FE047
S11302E00197F1F700C0000040E062E083E40E945F
S11302F0D3008FE99FE00197F1F700C00000089553
S1130300CF93C82F682F62956F7083E40E944301D6
S113031040E060E083E40E94D3000E9469016C2FF6
S113032083E40E94430140E060E083E40E94D30040
S11303300E9469018FEC97E00197F1F700C000007B
S1130340CF9108952FEF81EE94E0215080409040AA
S1130350E1F700C0000041E064E083E40E94630030
S113036041E065E083E40E94630041E066E083E4E9
S11303700E94630041E067E083E40E94630041E07F
S113038062E083E40E94630041E061E083E40E9450
S1130390630041E060E083E40E94630040E061E0C8
S11303A083E40E94D30082E00E9480018FE19EE4F6
S11303B00197F1F700C0000088E20E9480018FECF1
S11303C097E00197F1F700C000008CE00E948001E3
S11303D08FEC97E00197F1F700C0000081E00E94E4
S11303E080018FE19EE40197F1F700C0000086E0F0
S11303F00E9480018FEC97E00197F1F700C00000A4
S11304000895CF93C82F682F62956F7083E40E947C
S1130410430141E060E083E40E94D3000E9469014B
S11304206C2F83E40E94430141E060E083E40E9476
S1130430D3000E9469018FEC97E00197F1F700C0A7
S11304400000CF910895CF93DF93EC0103C00E9485
S11304500102219688818111FACFDF91CF9108950D
S11304609FEF980F923070F4613170F4662371F04D
S1130470813019F42FE7260F0AC0823041F42FEBA4
S1130480260F05C020E803C020E801C020E8822F21
S11304900E9480018FEC97E00197F1F700C0000003
S11304A008950E94A2010E94410080E690E00E940B
S11304B023020E945400BC0180E090E00E94B40337
S11304C020E030E040E250E40E941A040E948503D8
S11304D06B017C016DE081E00E94300228EEC216BF
S11304E023E0D20608F4B7C038EEC31A33E0D30AC7
S11304F09601ADECBCEC0E94AF04EC01D695C79517
S1130500D695C795D695C795CA30D10578F46DE0D0
S113051081E00E94300280E20E94010280E20E9497
S113052001028C2F805D0E940102C3CFC436D10525
S113053098F56DE081E00E94300280E20E940102A1
S113054096013695279536952795ABE7B4E10E9439
S1130550AF0496958795805D0E9401029E01ADECE3
S1130560BCEC0E94AF0496958795969587959695D1
S113057087959C01220F331F880F991F880F991F9D
S1130580880F991F820F931F9E01281B390BC901E5
S1130590805D0E9401028DCF6DE081E00E943002F7
S11305A09601369527953695279536952795A5EC8A
S11305B0B0E20E94AF04929582958F7089279F7054
S11305C08927805D0E94010296013695279536950C
S11305D02795ABE7B4E10E94AF04AC01569547956B
S11305E09A01ADECBCEC0E94AF0496958795969564
S11305F08795969587959C01220F331F880F991F25
S1130600880F991F880F991F820F931F9A01281B27
S1130610390BC901805D0E9401029E01ADECBCEC66
S11306200E94AF049695879596958795969587959C
S11306309C01220F331F880F991F880F991F880F61
S1130640991F820F931F9E01281B390BC901805DDE
S11306500E9401022ECF28EE33E07901EC18FD0848
S11306609701ADECBCEC0E94AF04EC01D695C795A4
S1130670D695C795D695C795CA30D10578F46DE05F
S113068081E00E94300280E20E9401028DE20E9419
S113069001028C2F805D0E9401020BCFC436D1056C
S11306A008F007CF6DE081E00E9430028DE20E94E5
S11306B0010297013695279536952795ABE7B4E166
S11306C00E94AF0496958795805D0E9401029E0169
S11306D0ADECBCEC0E94AF049695879596958795F2
S11306E0969587959C01220F331F880F991F880FB9
S11306F0991F880F991F820F931F9E01281B390B86
S1130700C901805D0E940102D4CE0E94F90388F0E1
S11307109F5798F0B92F9927B751B0F0E1F0660FC1
S1130720771F881F991F1AF0BA95C9F714C0B13002
S113073091F00E941304B1E008950C941304672F00
S1130740782F8827B85F39F0B93FCCF38695779531
S11307506795B395D9F73EF490958095709561951A
S11307607F4F8F4F9F4F0895E89409C097FB3EF445
S113077090958095709561957F4F8F4F9F4F9923EA
S1130780A9F0F92F96E9BB279395F6958795779568
S11307906795B795F111F8CFFAF4BB0F11F460FF28
S11307A01BC06F5F7F4F8F4F9F4F16C0882311F080
S11307B096E911C0772321F09EE8872F762F05C094
S11307C0662371F096E8862F70E060E02AF09A952F
S11307D0660F771F881FDAF7880F9695879597F924
S11307E0089557FD9058440F551F59F05F3F71F01D
S11307F04795880F97FB991F61F09F3F79F0879584
S11308000895121613061406551FF2CF4695F1DF0C
S113081008C0161617061806991FF1CF869571059C
S1130820610508940895E894BB2766277727CB01D0
S113083097F908950E942D040C949E040E9490043C
S113084038F00E94970420F0952311F00C9487044B
S11308500C948D0411240C9414040E94F10370F37D
S1130860959FC1F3950F50E0551F629FF001729F51
S1130870BB27F00DB11D639FAA27F00DB11DAA1F60
S1130880649F6627B00DA11D661F829F2227B00DAD
S1130890A11D621F739FB00DA11D621F839FA00D38
S11308A0611D221F749F3327A00D611D231F849F88
S11308B0600D211D822F762F6A2F11249F575040DF
S11308C09AF0F1F088234AF0EE0FFF1FBB1F661F5A
S11308D0771F881F91505040A9F79E3F510580F023
S11308E00C9487040C9414045F3FE4F3983ED4F30F
S11308F0869577956795B795F795E7959F5FC1F7C7
S1130900FE2B880F911D9695879597F9089597F971
S11309109F6780E870E060E008959FEF80EC0895A1
S113092000240A94161617061806090608950024CA
S11309300A9412161306140605060895092E039444
S1130940000C11F4882352F0BB0F40F4BF2B11F4B8
S113095060FF04C06F5F7F4F8F4F9F4F0895A29F2A
S1130960B001B39FC001A39F700D811D1124911D7F
S1130970B29F700D811D1124911D0895F894FFCF2D
S113098054656D70657261747572653D20202043F5
S1050990000061
S9030000FC
