S01200004B6579706164204144432E73726563CC
S11300000C942A000C943F000C943F000C943F0085
S11300100C943F000C943F000C943F000C943F0060
S11300200C943F000C943F000C943F000C943F0050
S11300300C943F000C943F000C943F000C943F0040
S11300400C943F000C943F000C943F000C943F0030
S11300500C943F0011241FBECFE5D8E0DEBFCDBF16
S113006010E0A0E6B0E0EAEBF5E002C005900D92E6
S1130070A238B107D9F70E942D020C94DB020C942C
S1130080000087B1806487B987B1816087B986B180
S1130090806886B986B1846086B986B1826086B983
S11300A0089586B1806486B93699FECF86B18061A1
S11300B086B924B185B190E0982F8827822B0895C2
S11300C0823419F118F4813439F008958334B1F18C
S11300D0843409F44CC00895413059F42AB381E0C2
S11300E090E002C0880F991F6A95E2F7822B8ABBC1
S11300F008952AB381E090E002C0880F991F6A95A1
S1130100E2F7809582238ABB0895413059F427B3DE
S113011081E090E002C0880F991F6A95E2F7822B74
S113012087BB089527B381E090E002C0880F991F30
S11301306A95E2F78095822387BB0895413059F48C
S113014024B381E090E002C0880F991F6A95E2F71A
S1130150822B84BB089524B381E090E002C0880F11
S1130160991F6A95E2F78095822384BB08954130F4
S113017059F421B381E090E002C0880F991F6A9579
S1130180E2F7822B81BB089521B381E090E002C0A5
S1130190880F991F6A95E2F78095822381BB0895A1
S11301A0823419F118F4813439F008958334B1F1AB
S11301B0843409F44CC00895413059F42BB381E0E0
S11301C090E002C0880F991F6A95E2F7822B8BBBDF
S11301D008952BB381E090E002C0880F991F6A95BF
S11301E0E2F7809582238BBB0895413059F428B3FC
S11301F081E090E002C0880F991F6A95E2F7822B94
S113020088BB089528B381E090E002C0880F991F4D
S11302106A95E2F78095822388BB0895413059F4AA
S113022025B381E090E002C0880F991F6A95E2F738
S1130230822B85BB089525B381E090E002C0880F2E
S1130240991F6A95E2F78095822385BB0895413012
S113025059F422B381E090E002C0880F991F6A9597
S1130260E2F7822B82BB089522B381E090E002C0C2
S1130270880F991F6A95E2F78095822382BB0895BF
S11302806295607F823479F018F4813431F00895F6
S1130290833479F0843499F008958BB38F708BBBD9
S11302A08BB3862B8BBB88B38F7088BB88B3862BAC
S11302B088BB85B38F7085BB85B3862B85BB82B322
S11302C08F7082BB82B3682B62BB089541E062E009
S11302D083E40E94D0008FE99FE00197F1F700C00A
S11302E0000040E062E083E40E94D0008FE99FE0D8
S11302F00197F1F700C000000895CF93C82F682F2D
S113030062956F7083E40E94400140E060E083E402
S11303100E94D0000E9466016C2F83E40E94400179
S113032040E060E083E40E94D0000E9466018FEC0C
S113033097E00197F1F700C00000CF9108952FEFE7
S113034081EE94E0215080409040E1F700C000002D
S113035041E064E083E40E94600041E065E083E4FE
S11303600E94600041E066E083E40E94600041E096
S113037067E083E40E94600041E062E083E40E945D
S1130380600041E061E083E40E94600041E060E0DD
S113039083E40E94600040E061E083E40E94D000B6
S11303A082E00E947D018FE19EE40197F1F700C095
S11303B0000088E20E947D018FEC97E00197F1F73D
S11303C000C000008CE00E947D018FEC97E0019753
S11303D0F1F700C0000081E00E947D018FE19EE4FE
S11303E00197F1F700C0000086E00E947D018FECC8
S11303F097E00197F1F700C000000895CF93C82F4C
S1130400682F62956F7083E40E94400141E060E0D0
S113041083E40E94D0000E9466016C2F83E40E9452
S1130420400141E060E083E40E94D0000E94660144
S11304308FEC97E00197F1F700C00000CF91089589
S1130440CF93DF93EC0103C00E94FE0121968881C3
S11304508111FACFDF91CF9108950E9441000E944B
S11304609F010E945100833721E0920709F45EC086
S113047000F58C3C910509F445C060F48F34910576
S113048009F44AC08239910509F441C0892B09F065
S113049088C047C0863221E0920709F451C08F34E6
S11304A021E0920709F447C0883F910509F079C01B
S11304B04CC0813E21E0920709F45BC078F48D3A88
S11304C021E0920709F44BC0883C21E0920709F42B
S11304D04BC08F38914009F064C03CC08A3022E0A0
S11304E0920709F455C028F4853F914009F455C09A
S11304F058C08E3122E0920709F445C080339240FF
S1130500E9F14FC080E690E00E9420024AC083E6F1
S113051090E00E94200245C085E690E00E942002FF
S113052040C087E690E00E9420023BC089E690E04C
S11305300E94200236C08BE690E00E94200231C067
S11305408DE690E00E9420022CC08FE690E00E948D
S1130550200227C081E790E00E94200222C083E7A6
S113056090E00E9420021DC085E790E00E942002D6
S113057018C087E790E00E94200213C089E790E04A
S11305800E9420020EC08BE790E00E94200209C066
S11305908DE790E00E94200204C08FE790E00E9463
S11305A020028FEF91EE24E0815090402040E1F74B
S10D05B000C0000056CFF894FFCFFE
S11305BA4F4E0030003D002B003100320033002D35
S11305CA002A003600350034003700380039002F7D
S10505DA00001B
S9030000FC
